{
  "contracts/AgentSwarmEscrow.sol": {
    "AgentSwarmEscrow": {
      "abi": [
        {
          "inputs": [],
          "name": "AlreadyAssigned",
          "type": "error"
        },
        {
          "inputs": [],
          "name": "CallerNotParticipant",
          "type": "error"
        },
        {
          "inputs": [],
          "name": "InvalidStatus",
          "type": "error"
        },
        {
          "inputs": [],
          "name": "OnlyManagerAllowed",
          "type": "error"
        },
        {
          "inputs": [],
          "name": "OnlyWorkerAllowed",
          "type": "error"
        },
        {
          "inputs": [],
          "name": "ReentrancyGuardReentrantCall",
          "type": "error"
        },
        {
          "inputs": [],
          "name": "TaskNotFound",
          "type": "error"
        },
        {
          "inputs": [],
          "name": "TransferFailed",
          "type": "error"
        },
        {
          "inputs": [],
          "name": "ZeroReward",
          "type": "error"
        },
        {
          "anonymous": false,
          "inputs": [
            {
              "indexed": true,
              "internalType": "uint256",
              "name": "taskId",
              "type": "uint256"
            },
            {
              "indexed": true,
              "internalType": "address",
              "name": "worker",
              "type": "address"
            },
            {
              "indexed": false,
              "internalType": "uint256",
              "name": "reward",
              "type": "uint256"
            }
          ],
          "name": "TaskApproved",
          "type": "event"
        },
        {
          "anonymous": false,
          "inputs": [
            {
              "indexed": true,
              "internalType": "uint256",
              "name": "taskId",
              "type": "uint256"
            },
            {
              "indexed": true,
              "internalType": "address",
              "name": "worker",
              "type": "address"
            }
          ],
          "name": "TaskClaimed",
          "type": "event"
        },
        {
          "anonymous": false,
          "inputs": [
            {
              "indexed": true,
              "internalType": "uint256",
              "name": "taskId",
              "type": "uint256"
            },
            {
              "indexed": true,
              "internalType": "address",
              "name": "disputer",
              "type": "address"
            }
          ],
          "name": "TaskDisputed",
          "type": "event"
        },
        {
          "anonymous": false,
          "inputs": [
            {
              "indexed": true,
              "internalType": "uint256",
              "name": "taskId",
              "type": "uint256"
            },
            {
              "indexed": true,
              "internalType": "address",
              "name": "manager",
              "type": "address"
            },
            {
              "indexed": false,
              "internalType": "uint256",
              "name": "reward",
              "type": "uint256"
            },
            {
              "indexed": false,
              "internalType": "string",
              "name": "metadataURI",
              "type": "string"
            }
          ],
          "name": "TaskPosted",
          "type": "event"
        },
        {
          "anonymous": false,
          "inputs": [
            {
              "indexed": true,
              "internalType": "uint256",
              "name": "taskId",
              "type": "uint256"
            },
            {
              "indexed": false,
              "internalType": "string",
              "name": "resultURI",
              "type": "string"
            }
          ],
          "name": "TaskSubmitted",
          "type": "event"
        },
        {
          "inputs": [
            {
              "internalType": "uint256",
              "name": "_taskId",
              "type": "uint256"
            }
          ],
          "name": "approveAndPay",
          "outputs": [],
          "stateMutability": "nonpayable",
          "type": "function"
        },
        {
          "inputs": [
            {
              "internalType": "uint256",
              "name": "_taskId",
              "type": "uint256"
            }
          ],
          "name": "claimTask",
          "outputs": [],
          "stateMutability": "nonpayable",
          "type": "function"
        },
        {
          "inputs": [
            {
              "internalType": "string",
              "name": "_metadataURI",
              "type": "string"
            }
          ],
          "name": "postTask",
          "outputs": [],
          "stateMutability": "payable",
          "type": "function"
        },
        {
          "inputs": [
            {
              "internalType": "uint256",
              "name": "_taskId",
              "type": "uint256"
            }
          ],
          "name": "raiseDispute",
          "outputs": [],
          "stateMutability": "nonpayable",
          "type": "function"
        },
        {
          "inputs": [
            {
              "internalType": "uint256",
              "name": "_taskId",
              "type": "uint256"
            },
            {
              "internalType": "string",
              "name": "_resultURI",
              "type": "string"
            }
          ],
          "name": "submitResult",
          "outputs": [],
          "stateMutability": "nonpayable",
          "type": "function"
        },
        {
          "inputs": [],
          "name": "taskCounter",
          "outputs": [
            {
              "internalType": "uint256",
              "name": "",
              "type": "uint256"
            }
          ],
          "stateMutability": "view",
          "type": "function"
        },
        {
          "inputs": [
            {
              "internalType": "uint256",
              "name": "",
              "type": "uint256"
            }
          ],
          "name": "tasks",
          "outputs": [
            {
              "internalType": "uint256",
              "name": "taskId",
              "type": "uint256"
            },
            {
              "internalType": "address",
              "name": "managerAgent",
              "type": "address"
            },
            {
              "internalType": "address",
              "name": "workerAgent",
              "type": "address"
            },
            {
              "internalType": "string",
              "name": "taskMetadataURI",
              "type": "string"
            },
            {
              "internalType": "string",
              "name": "resultURI",
              "type": "string"
            },
            {
              "internalType": "uint256",
              "name": "reward",
              "type": "uint256"
            },
            {
              "internalType": "enum AgentSwarmEscrow.Status",
              "name": "status",
              "type": "uint8"
            }
          ],
          "stateMutability": "view",
          "type": "function"
        },
        {
          "stateMutability": "payable",
          "type": "receive"
        }
      ],
      "evm": {
        "bytecode": {
          "linkReferences": {},
          "object": "608060405234801561001057600080fd5b5060017f9b779b17422d0df92223018b32b4d1fa46e071723d6817e2486d003becc55f0055610ce9806100446000396000f3fe6080604052600436106100745760003560e01c80638d9776721161004e5780638d977672146100eb5780638dd334951461011e578063a5c1674e1461013e578063c4ca280d1461015e57600080fd5b8063078970071461008057806358671730146100a25780638c0dd79a146100cb57600080fd5b3661007b57005b600080fd5b34801561008c57600080fd5b506100a061009b3660046108f8565b610171565b005b3480156100ae57600080fd5b506100b860005481565b6040519081526020015b60405180910390f35b3480156100d757600080fd5b506100a06100e63660046109b4565b610282565b3480156100f757600080fd5b5061010b6101063660046108f8565b610353565b6040516100c29796959493929190610a57565b34801561012a57600080fd5b506100a06101393660046108f8565b6104b0565b34801561014a57600080fd5b506100a06101593660046108f8565b610577565b6100a061016c366004610ad4565b61066a565b6101796107cd565b6000610184826107fb565b60018101549091506001600160a01b031633146101b4576040516303156b6760e31b815260040160405180910390fd5b6002600682015460ff1660048111156101cf576101cf610a41565b146101ed576040516307a92f1960e51b815260040160405180910390fd5b6002810154600582015460068301805460ff191660031790556040518181526001600160a01b0390921691829085907f224350e49b29e656cb8c93d7379c7ddb4907c6009b64159a5e70d38092eae1979060200160405180910390a3610253828261083b565b50505061027f60017f9b779b17422d0df92223018b32b4d1fa46e071723d6817e2486d003becc55f0055565b50565b600061028d836107fb565b60028101549091506001600160a01b031633146102bd576040516374e7f2f360e11b815260040160405180910390fd5b6001600682015460ff1660048111156102d8576102d8610a41565b146102f6576040516307a92f1960e51b815260040160405180910390fd5b600481016103048382610b99565b5060068101805460ff1916600217905560405183907f6446ced08d52e8f0331d94dbe32ad91d577ec02d6d8ec44376b1517fcca598a790610346908590610c59565b60405180910390a2505050565b600160208190526000918252604090912080549181015460028201546003830180546001600160a01b0393841694929093169261038f90610b11565b80601f01602080910402602001604051908101604052809291908181526020018280546103bb90610b11565b80156104085780601f106103dd57610100808354040283529160200191610408565b820191906000526020600020905b8154815290600101906020018083116103eb57829003601f168201915b50505050509080600401805461041d90610b11565b80601f016020809104026020016040519081016040528092919081815260200182805461044990610b11565b80156104965780601f1061046b57610100808354040283529160200191610496565b820191906000526020600020905b81548152906001019060200180831161047957829003601f168201915b50505050600583015460069093015491929160ff16905087565b60006104bb826107fb565b90506000600682015460ff1660048111156104d8576104d8610a41565b146104f6576040516307a92f1960e51b815260040160405180910390fd5b60028101546001600160a01b03161561052257604051639688dc5160e01b815260040160405180910390fd5b6002810180546001600160a01b0319163390811790915560068201805460ff1916600117905560405183907f1d8996e29d44a50435d568c283ce2580e5706f87b19ff3d34f455c9d2a99462090600090a35050565b6000610582826107fb565b60018101549091506001600160a01b031633148015906105af575060028101546001600160a01b03163314155b156105cd5760405163d8fe1fc760e01b815260040160405180910390fd5b6003600682015460ff1660048111156105e8576105e8610a41565b148061060c57506004600682015460ff16600481111561060a5761060a610a41565b145b1561062a576040516307a92f1960e51b815260040160405180910390fd5b60068101805460ff19166004179055604051339083907f4c876e9aba8144edd2840298ef3fd0d8735009124d7a0185a41b12680c09378290600090a35050565b3460000361068b57604051632706c9e160e21b815260040160405180910390fd5b6000806000815461069b90610c73565b91829055506040805160e0810182528281523360208083019182526000838501818152606085018981528651808501885283815260808701523460a087015260c086018390528783526001938490529590912084518155925191830180546001600160a01b039384166001600160a01b0319918216179091559051600284018054919093169116179055915192935091600382019061073a9082610b99565b506080820151600482019061074f9082610b99565b5060a0820151600582015560c082015160068201805460ff1916600183600481111561077d5761077d610a41565b0217905550905050336001600160a01b0316817f05fddf931b4d1e3b95f2b6fb12ab475fe9555ce60fd2bfe66b84060f2dc22a2e34856040516107c1929190610c9a565b60405180910390a35050565b6107d56108b4565b60027f9b779b17422d0df92223018b32b4d1fa46e071723d6817e2486d003becc55f0055565b600081158061080b575060005482115b156108295760405163c325ae3360e01b815260040160405180910390fd5b50600090815260016020526040902090565b6000826001600160a01b03168260405160006040518083038185875af1925050503d8060008114610888576040519150601f19603f3d011682016040523d82523d6000602084013e61088d565b606091505b50509050806108af576040516312171d8360e31b815260040160405180910390fd5b505050565b7f9b779b17422d0df92223018b32b4d1fa46e071723d6817e2486d003becc55f00546002036108f657604051633ee5aeb560e01b815260040160405180910390fd5b565b60006020828403121561090a57600080fd5b5035919050565b634e487b7160e01b600052604160045260246000fd5b600082601f83011261093857600080fd5b813567ffffffffffffffff8082111561095357610953610911565b604051601f8301601f19908116603f0116810190828211818310171561097b5761097b610911565b8160405283815286602085880101111561099457600080fd5b836020870160208301376000602085830101528094505050505092915050565b600080604083850312156109c757600080fd5b82359150602083013567ffffffffffffffff8111156109e557600080fd5b6109f185828601610927565b9150509250929050565b6000815180845260005b81811015610a2157602081850181015186830182015201610a05565b506000602082860101526020601f19601f83011685010191505092915050565b634e487b7160e01b600052602160045260246000fd5b8781526001600160a01b0387811660208301528616604082015260e060608201819052600090610a89908301876109fb565b8281036080840152610a9b81876109fb565b9150508360a083015260058310610ac257634e487b7160e01b600052602160045260246000fd5b8260c083015298975050505050505050565b600060208284031215610ae657600080fd5b813567ffffffffffffffff811115610afd57600080fd5b610b0984828501610927565b949350505050565b600181811c90821680610b2557607f821691505b602082108103610b4557634e487b7160e01b600052602260045260246000fd5b50919050565b601f8211156108af57600081815260208120601f850160051c81016020861015610b725750805b601f850160051c820191505b81811015610b9157828155600101610b7e565b505050505050565b815167ffffffffffffffff811115610bb357610bb3610911565b610bc781610bc18454610b11565b84610b4b565b602080601f831160018114610bfc5760008415610be45750858301515b600019600386901b1c1916600185901b178555610b91565b600085815260208120601f198616915b82811015610c2b57888601518255948401946001909101908401610c0c565b5085821015610c495787850151600019600388901b60f8161c191681555b5050505050600190811b01905550565b602081526000610c6c60208301846109fb565b9392505050565b600060018201610c9357634e487b7160e01b600052601160045260246000fd5b5060010190565b828152604060208201526000610b0960408301846109fb56fea2646970667358221220f9ea1ca261bae981cb43fc29fc67afff79a20e85b3480d1c6897764ebcf5b3ce64736f6c63430008140033",
          "opcodes": "PUSH1 0x80 PUSH1 0x40 MSTORE CALLVALUE DUP1 ISZERO PUSH2 0x10 JUMPI PUSH1 0x0 DUP1 REVERT JUMPDEST POP PUSH1 0x1 PUSH32 0x9B779B17422D0DF92223018B32B4D1FA46E071723D6817E2486D003BECC55F00 SSTORE PUSH2 0xCE9 DUP1 PUSH2 0x44 PUSH1 0x0 CODECOPY PUSH1 0x0 RETURN INVALID PUSH1 0x80 PUSH1 0x40 MSTORE PUSH1 0x4 CALLDATASIZE LT PUSH2 0x74 JUMPI PUSH1 0x0 CALLDATALOAD PUSH1 0xE0 SHR DUP1 PUSH4 0x8D977672 GT PUSH2 0x4E JUMPI DUP1 PUSH4 0x8D977672 EQ PUSH2 0xEB JUMPI DUP1 PUSH4 0x8DD33495 EQ PUSH2 0x11E JUMPI DUP1 PUSH4 0xA5C1674E EQ PUSH2 0x13E JUMPI DUP1 PUSH4 0xC4CA280D EQ PUSH2 0x15E JUMPI PUSH1 0x0 DUP1 REVERT JUMPDEST DUP1 PUSH4 0x7897007 EQ PUSH2 0x80 JUMPI DUP1 PUSH4 0x58671730 EQ PUSH2 0xA2 JUMPI DUP1 PUSH4 0x8C0DD79A EQ PUSH2 0xCB JUMPI PUSH1 0x0 DUP1 REVERT JUMPDEST CALLDATASIZE PUSH2 0x7B JUMPI STOP JUMPDEST PUSH1 0x0 DUP1 REVERT JUMPDEST CALLVALUE DUP1 ISZERO PUSH2 0x8C JUMPI PUSH1 0x0 DUP1 REVERT JUMPDEST POP PUSH2 0xA0 PUSH2 0x9B CALLDATASIZE PUSH1 0x4 PUSH2 0x8F8 JUMP JUMPDEST PUSH2 0x171 JUMP JUMPDEST STOP JUMPDEST CALLVALUE DUP1 ISZERO PUSH2 0xAE JUMPI PUSH1 0x0 DUP1 REVERT JUMPDEST POP PUSH2 0xB8 PUSH1 0x0 SLOAD DUP2 JUMP JUMPDEST PUSH1 0x40 MLOAD SWAP1 DUP2 MSTORE PUSH1 0x20 ADD JUMPDEST PUSH1 0x40 MLOAD DUP1 SWAP2 SUB SWAP1 RETURN JUMPDEST CALLVALUE DUP1 ISZERO PUSH2 0xD7 JUMPI PUSH1 0x0 DUP1 REVERT JUMPDEST POP PUSH2 0xA0 PUSH2 0xE6 CALLDATASIZE PUSH1 0x4 PUSH2 0x9B4 JUMP JUMPDEST PUSH2 0x282 JUMP JUMPDEST CALLVALUE DUP1 ISZERO PUSH2 0xF7 JUMPI PUSH1 0x0 DUP1 REVERT JUMPDEST POP PUSH2 0x10B PUSH2 0x106 CALLDATASIZE PUSH1 0x4 PUSH2 0x8F8 JUMP JUMPDEST PUSH2 0x353 JUMP JUMPDEST PUSH1 0x40 MLOAD PUSH2 0xC2 SWAP8 SWAP7 SWAP6 SWAP5 SWAP4 SWAP3 SWAP2 SWAP1 PUSH2 0xA57 JUMP JUMPDEST CALLVALUE DUP1 ISZERO PUSH2 0x12A JUMPI PUSH1 0x0 DUP1 REVERT JUMPDEST POP PUSH2 0xA0 PUSH2 0x139 CALLDATASIZE PUSH1 0x4 PUSH2 0x8F8 JUMP JUMPDEST PUSH2 0x4B0 JUMP JUMPDEST CALLVALUE DUP1 ISZERO PUSH2 0x14A JUMPI PUSH1 0x0 DUP1 REVERT JUMPDEST POP PUSH2 0xA0 PUSH2 0x159 CALLDATASIZE PUSH1 0x4 PUSH2 0x8F8 JUMP JUMPDEST PUSH2 0x577 JUMP JUMPDEST PUSH2 0xA0 PUSH2 0x16C CALLDATASIZE PUSH1 0x4 PUSH2 0xAD4 JUMP JUMPDEST PUSH2 0x66A JUMP JUMPDEST PUSH2 0x179 PUSH2 0x7CD JUMP JUMPDEST PUSH1 0x0 PUSH2 0x184 DUP3 PUSH2 0x7FB JUMP JUMPDEST PUSH1 0x1 DUP2 ADD SLOAD SWAP1 SWAP2 POP PUSH1 0x1 PUSH1 0x1 PUSH1 0xA0 SHL SUB AND CALLER EQ PUSH2 0x1B4 JUMPI PUSH1 0x40 MLOAD PUSH4 0x3156B67 PUSH1 0xE3 SHL DUP2 MSTORE PUSH1 0x4 ADD PUSH1 0x40 MLOAD DUP1 SWAP2 SUB SWAP1 REVERT JUMPDEST PUSH1 0x2 PUSH1 0x6 DUP3 ADD SLOAD PUSH1 0xFF AND PUSH1 0x4 DUP2 GT ISZERO PUSH2 0x1CF JUMPI PUSH2 0x1CF PUSH2 0xA41 JUMP JUMPDEST EQ PUSH2 0x1ED JUMPI PUSH1 0x40 MLOAD PUSH4 0x7A92F19 PUSH1 0xE5 SHL DUP2 MSTORE PUSH1 0x4 ADD PUSH1 0x40 MLOAD DUP1 SWAP2 SUB SWAP1 REVERT JUMPDEST PUSH1 0x2 DUP2 ADD SLOAD PUSH1 0x5 DUP3 ADD SLOAD PUSH1 0x6 DUP4 ADD DUP1 SLOAD PUSH1 0xFF NOT AND PUSH1 0x3 OR SWAP1 SSTORE PUSH1 0x40 MLOAD DUP2 DUP2 MSTORE PUSH1 0x1 PUSH1 0x1 PUSH1 0xA0 SHL SUB SWAP1 SWAP3 AND SWAP2 DUP3 SWAP1 DUP6 SWAP1 PUSH32 0x224350E49B29E656CB8C93D7379C7DDB4907C6009B64159A5E70D38092EAE197 SWAP1 PUSH1 0x20 ADD PUSH1 0x40 MLOAD DUP1 SWAP2 SUB SWAP1 LOG3 PUSH2 0x253 DUP3 DUP3 PUSH2 0x83B JUMP JUMPDEST POP POP POP PUSH2 0x27F PUSH1 0x1 PUSH32 0x9B779B17422D0DF92223018B32B4D1FA46E071723D6817E2486D003BECC55F00 SSTORE JUMP JUMPDEST POP JUMP JUMPDEST PUSH1 0x0 PUSH2 0x28D DUP4 PUSH2 0x7FB JUMP JUMPDEST PUSH1 0x2 DUP2 ADD SLOAD SWAP1 SWAP2 POP PUSH1 0x1 PUSH1 0x1 PUSH1 0xA0 SHL SUB AND CALLER EQ PUSH2 0x2BD JUMPI PUSH1 0x40 MLOAD PUSH4 0x74E7F2F3 PUSH1 0xE1 SHL DUP2 MSTORE PUSH1 0x4 ADD PUSH1 0x40 MLOAD DUP1 SWAP2 SUB SWAP1 REVERT JUMPDEST PUSH1 0x1 PUSH1 0x6 DUP3 ADD SLOAD PUSH1 0xFF AND PUSH1 0x4 DUP2 GT ISZERO PUSH2 0x2D8 JUMPI PUSH2 0x2D8 PUSH2 0xA41 JUMP JUMPDEST EQ PUSH2 0x2F6 JUMPI PUSH1 0x40 MLOAD PUSH4 0x7A92F19 PUSH1 0xE5 SHL DUP2 MSTORE PUSH1 0x4 ADD PUSH1 0x40 MLOAD DUP1 SWAP2 SUB SWAP1 REVERT JUMPDEST PUSH1 0x4 DUP2 ADD PUSH2 0x304 DUP4 DUP3 PUSH2 0xB99 JUMP JUMPDEST POP PUSH1 0x6 DUP2 ADD DUP1 SLOAD PUSH1 0xFF NOT AND PUSH1 0x2 OR SWAP1 SSTORE PUSH1 0x40 MLOAD DUP4 SWAP1 PUSH32 0x6446CED08D52E8F0331D94DBE32AD91D577EC02D6D8EC44376B1517FCCA598A7 SWAP1 PUSH2 0x346 SWAP1 DUP6 SWAP1 PUSH2 0xC59 JUMP JUMPDEST PUSH1 0x40 MLOAD DUP1 SWAP2 SUB SWAP1 LOG2 POP POP POP JUMP JUMPDEST PUSH1 0x1 PUSH1 0x20 DUP2 SWAP1 MSTORE PUSH1 0x0 SWAP2 DUP3 MSTORE PUSH1 0x40 SWAP1 SWAP2 KECCAK256 DUP1 SLOAD SWAP2 DUP2 ADD SLOAD PUSH1 0x2 DUP3 ADD SLOAD PUSH1 0x3 DUP4 ADD DUP1 SLOAD PUSH1 0x1 PUSH1 0x1 PUSH1 0xA0 SHL SUB SWAP4 DUP5 AND SWAP5 SWAP3 SWAP1 SWAP4 AND SWAP3 PUSH2 0x38F SWAP1 PUSH2 0xB11 JUMP JUMPDEST DUP1 PUSH1 0x1F ADD PUSH1 0x20 DUP1 SWAP2 DIV MUL PUSH1 0x20 ADD PUSH1 0x40 MLOAD SWAP1 DUP2 ADD PUSH1 0x40 MSTORE DUP1 SWAP3 SWAP2 SWAP1 DUP2 DUP2 MSTORE PUSH1 0x20 ADD DUP3 DUP1 SLOAD PUSH2 0x3BB SWAP1 PUSH2 0xB11 JUMP JUMPDEST DUP1 ISZERO PUSH2 0x408 JUMPI DUP1 PUSH1 0x1F LT PUSH2 0x3DD JUMPI PUSH2 0x100 DUP1 DUP4 SLOAD DIV MUL DUP4 MSTORE SWAP2 PUSH1 0x20 ADD SWAP2 PUSH2 0x408 JUMP JUMPDEST DUP3 ADD SWAP2 SWAP1 PUSH1 0x0 MSTORE PUSH1 0x20 PUSH1 0x0 KECCAK256 SWAP1 JUMPDEST DUP2 SLOAD DUP2 MSTORE SWAP1 PUSH1 0x1 ADD SWAP1 PUSH1 0x20 ADD DUP1 DUP4 GT PUSH2 0x3EB JUMPI DUP3 SWAP1 SUB PUSH1 0x1F AND DUP3 ADD SWAP2 JUMPDEST POP POP POP POP POP SWAP1 DUP1 PUSH1 0x4 ADD DUP1 SLOAD PUSH2 0x41D SWAP1 PUSH2 0xB11 JUMP JUMPDEST DUP1 PUSH1 0x1F ADD PUSH1 0x20 DUP1 SWAP2 DIV MUL PUSH1 0x20 ADD PUSH1 0x40 MLOAD SWAP1 DUP2 ADD PUSH1 0x40 MSTORE DUP1 SWAP3 SWAP2 SWAP1 DUP2 DUP2 MSTORE PUSH1 0x20 ADD DUP3 DUP1 SLOAD PUSH2 0x449 SWAP1 PUSH2 0xB11 JUMP JUMPDEST DUP1 ISZERO PUSH2 0x496 JUMPI DUP1 PUSH1 0x1F LT PUSH2 0x46B JUMPI PUSH2 0x100 DUP1 DUP4 SLOAD DIV MUL DUP4 MSTORE SWAP2 PUSH1 0x20 ADD SWAP2 PUSH2 0x496 JUMP JUMPDEST DUP3 ADD SWAP2 SWAP1 PUSH1 0x0 MSTORE PUSH1 0x20 PUSH1 0x0 KECCAK256 SWAP1 JUMPDEST DUP2 SLOAD DUP2 MSTORE SWAP1 PUSH1 0x1 ADD SWAP1 PUSH1 0x20 ADD DUP1 DUP4 GT PUSH2 0x479 JUMPI DUP3 SWAP1 SUB PUSH1 0x1F AND DUP3 ADD SWAP2 JUMPDEST POP POP POP POP PUSH1 0x5 DUP4 ADD SLOAD PUSH1 0x6 SWAP1 SWAP4 ADD SLOAD SWAP2 SWAP3 SWAP2 PUSH1 0xFF AND SWAP1 POP DUP8 JUMP JUMPDEST PUSH1 0x0 PUSH2 0x4BB DUP3 PUSH2 0x7FB JUMP JUMPDEST SWAP1 POP PUSH1 0x0 PUSH1 0x6 DUP3 ADD SLOAD PUSH1 0xFF AND PUSH1 0x4 DUP2 GT ISZERO PUSH2 0x4D8 JUMPI PUSH2 0x4D8 PUSH2 0xA41 JUMP JUMPDEST EQ PUSH2 0x4F6 JUMPI PUSH1 0x40 MLOAD PUSH4 0x7A92F19 PUSH1 0xE5 SHL DUP2 MSTORE PUSH1 0x4 ADD PUSH1 0x40 MLOAD DUP1 SWAP2 SUB SWAP1 REVERT JUMPDEST PUSH1 0x2 DUP2 ADD SLOAD PUSH1 0x1 PUSH1 0x1 PUSH1 0xA0 SHL SUB AND ISZERO PUSH2 0x522 JUMPI PUSH1 0x40 MLOAD PUSH4 0x9688DC51 PUSH1 0xE0 SHL DUP2 MSTORE PUSH1 0x4 ADD PUSH1 0x40 MLOAD DUP1 SWAP2 SUB SWAP1 REVERT JUMPDEST PUSH1 0x2 DUP2 ADD DUP1 SLOAD PUSH1 0x1 PUSH1 0x1 PUSH1 0xA0 SHL SUB NOT AND CALLER SWAP1 DUP2 OR SWAP1 SWAP2 SSTORE PUSH1 0x6 DUP3 ADD DUP1 SLOAD PUSH1 0xFF NOT AND PUSH1 0x1 OR SWAP1 SSTORE PUSH1 0x40 MLOAD DUP4 SWAP1 PUSH32 0x1D8996E29D44A50435D568C283CE2580E5706F87B19FF3D34F455C9D2A994620 SWAP1 PUSH1 0x0 SWAP1 LOG3 POP POP JUMP JUMPDEST PUSH1 0x0 PUSH2 0x582 DUP3 PUSH2 0x7FB JUMP JUMPDEST PUSH1 0x1 DUP2 ADD SLOAD SWAP1 SWAP2 POP PUSH1 0x1 PUSH1 0x1 PUSH1 0xA0 SHL SUB AND CALLER EQ DUP1 ISZERO SWAP1 PUSH2 0x5AF JUMPI POP PUSH1 0x2 DUP2 ADD SLOAD PUSH1 0x1 PUSH1 0x1 PUSH1 0xA0 SHL SUB AND CALLER EQ ISZERO JUMPDEST ISZERO PUSH2 0x5CD JUMPI PUSH1 0x40 MLOAD PUSH4 0xD8FE1FC7 PUSH1 0xE0 SHL DUP2 MSTORE PUSH1 0x4 ADD PUSH1 0x40 MLOAD DUP1 SWAP2 SUB SWAP1 REVERT JUMPDEST PUSH1 0x3 PUSH1 0x6 DUP3 ADD SLOAD PUSH1 0xFF AND PUSH1 0x4 DUP2 GT ISZERO PUSH2 0x5E8 JUMPI PUSH2 0x5E8 PUSH2 0xA41 JUMP JUMPDEST EQ DUP1 PUSH2 0x60C JUMPI POP PUSH1 0x4 PUSH1 0x6 DUP3 ADD SLOAD PUSH1 0xFF AND PUSH1 0x4 DUP2 GT ISZERO PUSH2 0x60A JUMPI PUSH2 0x60A PUSH2 0xA41 JUMP JUMPDEST EQ JUMPDEST ISZERO PUSH2 0x62A JUMPI PUSH1 0x40 MLOAD PUSH4 0x7A92F19 PUSH1 0xE5 SHL DUP2 MSTORE PUSH1 0x4 ADD PUSH1 0x40 MLOAD DUP1 SWAP2 SUB SWAP1 REVERT JUMPDEST PUSH1 0x6 DUP2 ADD DUP1 SLOAD PUSH1 0xFF NOT AND PUSH1 0x4 OR SWAP1 SSTORE PUSH1 0x40 MLOAD CALLER SWAP1 DUP4 SWAP1 PUSH32 0x4C876E9ABA8144EDD2840298EF3FD0D8735009124D7A0185A41B12680C093782 SWAP1 PUSH1 0x0 SWAP1 LOG3 POP POP JUMP JUMPDEST CALLVALUE PUSH1 0x0 SUB PUSH2 0x68B JUMPI PUSH1 0x40 MLOAD PUSH4 0x2706C9E1 PUSH1 0xE2 SHL DUP2 MSTORE PUSH1 0x4 ADD PUSH1 0x40 MLOAD DUP1 SWAP2 SUB SWAP1 REVERT JUMPDEST PUSH1 0x0 DUP1 PUSH1 0x0 DUP2 SLOAD PUSH2 0x69B SWAP1 PUSH2 0xC73 JUMP JUMPDEST SWAP2 DUP3 SWAP1 SSTORE POP PUSH1 0x40 DUP1 MLOAD PUSH1 0xE0 DUP2 ADD DUP3 MSTORE DUP3 DUP2 MSTORE CALLER PUSH1 0x20 DUP1 DUP4 ADD SWAP2 DUP3 MSTORE PUSH1 0x0 DUP4 DUP6 ADD DUP2 DUP2 MSTORE PUSH1 0x60 DUP6 ADD DUP10 DUP2 MSTORE DUP7 MLOAD DUP1 DUP6 ADD DUP9 MSTORE DUP4 DUP2 MSTORE PUSH1 0x80 DUP8 ADD MSTORE CALLVALUE PUSH1 0xA0 DUP8 ADD MSTORE PUSH1 0xC0 DUP7 ADD DUP4 SWAP1 MSTORE DUP8 DUP4 MSTORE PUSH1 0x1 SWAP4 DUP5 SWAP1 MSTORE SWAP6 SWAP1 SWAP2 KECCAK256 DUP5 MLOAD DUP2 SSTORE SWAP3 MLOAD SWAP2 DUP4 ADD DUP1 SLOAD PUSH1 0x1 PUSH1 0x1 PUSH1 0xA0 SHL SUB SWAP4 DUP5 AND PUSH1 0x1 PUSH1 0x1 PUSH1 0xA0 SHL SUB NOT SWAP2 DUP3 AND OR SWAP1 SWAP2 SSTORE SWAP1 MLOAD PUSH1 0x2 DUP5 ADD DUP1 SLOAD SWAP2 SWAP1 SWAP4 AND SWAP2 AND OR SWAP1 SSTORE SWAP2 MLOAD SWAP3 SWAP4 POP SWAP2 PUSH1 0x3 DUP3 ADD SWAP1 PUSH2 0x73A SWAP1 DUP3 PUSH2 0xB99 JUMP JUMPDEST POP PUSH1 0x80 DUP3 ADD MLOAD PUSH1 0x4 DUP3 ADD SWAP1 PUSH2 0x74F SWAP1 DUP3 PUSH2 0xB99 JUMP JUMPDEST POP PUSH1 0xA0 DUP3 ADD MLOAD PUSH1 0x5 DUP3 ADD SSTORE PUSH1 0xC0 DUP3 ADD MLOAD PUSH1 0x6 DUP3 ADD DUP1 SLOAD PUSH1 0xFF NOT AND PUSH1 0x1 DUP4 PUSH1 0x4 DUP2 GT ISZERO PUSH2 0x77D JUMPI PUSH2 0x77D PUSH2 0xA41 JUMP JUMPDEST MUL OR SWAP1 SSTORE POP SWAP1 POP POP CALLER PUSH1 0x1 PUSH1 0x1 PUSH1 0xA0 SHL SUB AND DUP2 PUSH32 0x5FDDF931B4D1E3B95F2B6FB12AB475FE9555CE60FD2BFE66B84060F2DC22A2E CALLVALUE DUP6 PUSH1 0x40 MLOAD PUSH2 0x7C1 SWAP3 SWAP2 SWAP1 PUSH2 0xC9A JUMP JUMPDEST PUSH1 0x40 MLOAD DUP1 SWAP2 SUB SWAP1 LOG3 POP POP JUMP JUMPDEST PUSH2 0x7D5 PUSH2 0x8B4 JUMP JUMPDEST PUSH1 0x2 PUSH32 0x9B779B17422D0DF92223018B32B4D1FA46E071723D6817E2486D003BECC55F00 SSTORE JUMP JUMPDEST PUSH1 0x0 DUP2 ISZERO DUP1 PUSH2 0x80B JUMPI POP PUSH1 0x0 SLOAD DUP3 GT JUMPDEST ISZERO PUSH2 0x829 JUMPI PUSH1 0x40 MLOAD PUSH4 0xC325AE33 PUSH1 0xE0 SHL DUP2 MSTORE PUSH1 0x4 ADD PUSH1 0x40 MLOAD DUP1 SWAP2 SUB SWAP1 REVERT JUMPDEST POP PUSH1 0x0 SWAP1 DUP2 MSTORE PUSH1 0x1 PUSH1 0x20 MSTORE PUSH1 0x40 SWAP1 KECCAK256 SWAP1 JUMP JUMPDEST PUSH1 0x0 DUP3 PUSH1 0x1 PUSH1 0x1 PUSH1 0xA0 SHL SUB AND DUP3 PUSH1 0x40 MLOAD PUSH1 0x0 PUSH1 0x40 MLOAD DUP1 DUP4 SUB DUP2 DUP6 DUP8 GAS CALL SWAP3 POP POP POP RETURNDATASIZE DUP1 PUSH1 0x0 DUP2 EQ PUSH2 0x888 JUMPI PUSH1 0x40 MLOAD SWAP2 POP PUSH1 0x1F NOT PUSH1 0x3F RETURNDATASIZE ADD AND DUP3 ADD PUSH1 0x40 MSTORE RETURNDATASIZE DUP3 MSTORE RETURNDATASIZE PUSH1 0x0 PUSH1 0x20 DUP5 ADD RETURNDATACOPY PUSH2 0x88D JUMP JUMPDEST PUSH1 0x60 SWAP2 POP JUMPDEST POP POP SWAP1 POP DUP1 PUSH2 0x8AF JUMPI PUSH1 0x40 MLOAD PUSH4 0x12171D83 PUSH1 0xE3 SHL DUP2 MSTORE PUSH1 0x4 ADD PUSH1 0x40 MLOAD DUP1 SWAP2 SUB SWAP1 REVERT JUMPDEST POP POP POP JUMP JUMPDEST PUSH32 0x9B779B17422D0DF92223018B32B4D1FA46E071723D6817E2486D003BECC55F00 SLOAD PUSH1 0x2 SUB PUSH2 0x8F6 JUMPI PUSH1 0x40 MLOAD PUSH4 0x3EE5AEB5 PUSH1 0xE0 SHL DUP2 MSTORE PUSH1 0x4 ADD PUSH1 0x40 MLOAD DUP1 SWAP2 SUB SWAP1 REVERT JUMPDEST JUMP JUMPDEST PUSH1 0x0 PUSH1 0x20 DUP3 DUP5 SUB SLT ISZERO PUSH2 0x90A JUMPI PUSH1 0x0 DUP1 REVERT JUMPDEST POP CALLDATALOAD SWAP2 SWAP1 POP JUMP JUMPDEST PUSH4 0x4E487B71 PUSH1 0xE0 SHL PUSH1 0x0 MSTORE PUSH1 0x41 PUSH1 0x4 MSTORE PUSH1 0x24 PUSH1 0x0 REVERT JUMPDEST PUSH1 0x0 DUP3 PUSH1 0x1F DUP4 ADD SLT PUSH2 0x938 JUMPI PUSH1 0x0 DUP1 REVERT JUMPDEST DUP2 CALLDATALOAD PUSH8 0xFFFFFFFFFFFFFFFF DUP1 DUP3 GT ISZERO PUSH2 0x953 JUMPI PUSH2 0x953 PUSH2 0x911 JUMP JUMPDEST PUSH1 0x40 MLOAD PUSH1 0x1F DUP4 ADD PUSH1 0x1F NOT SWAP1 DUP2 AND PUSH1 0x3F ADD AND DUP2 ADD SWAP1 DUP3 DUP3 GT DUP2 DUP4 LT OR ISZERO PUSH2 0x97B JUMPI PUSH2 0x97B PUSH2 0x911 JUMP JUMPDEST DUP2 PUSH1 0x40 MSTORE DUP4 DUP2 MSTORE DUP7 PUSH1 0x20 DUP6 DUP9 ADD ADD GT ISZERO PUSH2 0x994 JUMPI PUSH1 0x0 DUP1 REVERT JUMPDEST DUP4 PUSH1 0x20 DUP8 ADD PUSH1 0x20 DUP4 ADD CALLDATACOPY PUSH1 0x0 PUSH1 0x20 DUP6 DUP4 ADD ADD MSTORE DUP1 SWAP5 POP POP POP POP POP SWAP3 SWAP2 POP POP JUMP JUMPDEST PUSH1 0x0 DUP1 PUSH1 0x40 DUP4 DUP6 SUB SLT ISZERO PUSH2 0x9C7 JUMPI PUSH1 0x0 DUP1 REVERT JUMPDEST DUP3 CALLDATALOAD SWAP2 POP PUSH1 0x20 DUP4 ADD CALLDATALOAD PUSH8 0xFFFFFFFFFFFFFFFF DUP2 GT ISZERO PUSH2 0x9E5 JUMPI PUSH1 0x0 DUP1 REVERT JUMPDEST PUSH2 0x9F1 DUP6 DUP3 DUP7 ADD PUSH2 0x927 JUMP JUMPDEST SWAP2 POP POP SWAP3 POP SWAP3 SWAP1 POP JUMP JUMPDEST PUSH1 0x0 DUP2 MLOAD DUP1 DUP5 MSTORE PUSH1 0x0 JUMPDEST DUP2 DUP2 LT ISZERO PUSH2 0xA21 JUMPI PUSH1 0x20 DUP2 DUP6 ADD DUP2 ADD MLOAD DUP7 DUP4 ADD DUP3 ADD MSTORE ADD PUSH2 0xA05 JUMP JUMPDEST POP PUSH1 0x0 PUSH1 0x20 DUP3 DUP7 ADD ADD MSTORE PUSH1 0x20 PUSH1 0x1F NOT PUSH1 0x1F DUP4 ADD AND DUP6 ADD ADD SWAP2 POP POP SWAP3 SWAP2 POP POP JUMP JUMPDEST PUSH4 0x4E487B71 PUSH1 0xE0 SHL PUSH1 0x0 MSTORE PUSH1 0x21 PUSH1 0x4 MSTORE PUSH1 0x24 PUSH1 0x0 REVERT JUMPDEST DUP8 DUP2 MSTORE PUSH1 0x1 PUSH1 0x1 PUSH1 0xA0 SHL SUB DUP8 DUP2 AND PUSH1 0x20 DUP4 ADD MSTORE DUP7 AND PUSH1 0x40 DUP3 ADD MSTORE PUSH1 0xE0 PUSH1 0x60 DUP3 ADD DUP2 SWAP1 MSTORE PUSH1 0x0 SWAP1 PUSH2 0xA89 SWAP1 DUP4 ADD DUP8 PUSH2 0x9FB JUMP JUMPDEST DUP3 DUP2 SUB PUSH1 0x80 DUP5 ADD MSTORE PUSH2 0xA9B DUP2 DUP8 PUSH2 0x9FB JUMP JUMPDEST SWAP2 POP POP DUP4 PUSH1 0xA0 DUP4 ADD MSTORE PUSH1 0x5 DUP4 LT PUSH2 0xAC2 JUMPI PUSH4 0x4E487B71 PUSH1 0xE0 SHL PUSH1 0x0 MSTORE PUSH1 0x21 PUSH1 0x4 MSTORE PUSH1 0x24 PUSH1 0x0 REVERT JUMPDEST DUP3 PUSH1 0xC0 DUP4 ADD MSTORE SWAP9 SWAP8 POP POP POP POP POP POP POP POP JUMP JUMPDEST PUSH1 0x0 PUSH1 0x20 DUP3 DUP5 SUB SLT ISZERO PUSH2 0xAE6 JUMPI PUSH1 0x0 DUP1 REVERT JUMPDEST DUP2 CALLDATALOAD PUSH8 0xFFFFFFFFFFFFFFFF DUP2 GT ISZERO PUSH2 0xAFD JUMPI PUSH1 0x0 DUP1 REVERT JUMPDEST PUSH2 0xB09 DUP5 DUP3 DUP6 ADD PUSH2 0x927 JUMP JUMPDEST SWAP5 SWAP4 POP POP POP POP JUMP JUMPDEST PUSH1 0x1 DUP2 DUP2 SHR SWAP1 DUP3 AND DUP1 PUSH2 0xB25 JUMPI PUSH1 0x7F DUP3 AND SWAP2 POP JUMPDEST PUSH1 0x20 DUP3 LT DUP2 SUB PUSH2 0xB45 JUMPI PUSH4 0x4E487B71 PUSH1 0xE0 SHL PUSH1 0x0 MSTORE PUSH1 0x22 PUSH1 0x4 MSTORE PUSH1 0x24 PUSH1 0x0 REVERT JUMPDEST POP SWAP2 SWAP1 POP JUMP JUMPDEST PUSH1 0x1F DUP3 GT ISZERO PUSH2 0x8AF JUMPI PUSH1 0x0 DUP2 DUP2 MSTORE PUSH1 0x20 DUP2 KECCAK256 PUSH1 0x1F DUP6 ADD PUSH1 0x5 SHR DUP2 ADD PUSH1 0x20 DUP7 LT ISZERO PUSH2 0xB72 JUMPI POP DUP1 JUMPDEST PUSH1 0x1F DUP6 ADD PUSH1 0x5 SHR DUP3 ADD SWAP2 POP JUMPDEST DUP2 DUP2 LT ISZERO PUSH2 0xB91 JUMPI DUP3 DUP2 SSTORE PUSH1 0x1 ADD PUSH2 0xB7E JUMP JUMPDEST POP POP POP POP POP POP JUMP JUMPDEST DUP2 MLOAD PUSH8 0xFFFFFFFFFFFFFFFF DUP2 GT ISZERO PUSH2 0xBB3 JUMPI PUSH2 0xBB3 PUSH2 0x911 JUMP JUMPDEST PUSH2 0xBC7 DUP2 PUSH2 0xBC1 DUP5 SLOAD PUSH2 0xB11 JUMP JUMPDEST DUP5 PUSH2 0xB4B JUMP JUMPDEST PUSH1 0x20 DUP1 PUSH1 0x1F DUP4 GT PUSH1 0x1 DUP2 EQ PUSH2 0xBFC JUMPI PUSH1 0x0 DUP5 ISZERO PUSH2 0xBE4 JUMPI POP DUP6 DUP4 ADD MLOAD JUMPDEST PUSH1 0x0 NOT PUSH1 0x3 DUP7 SWAP1 SHL SHR NOT AND PUSH1 0x1 DUP6 SWAP1 SHL OR DUP6 SSTORE PUSH2 0xB91 JUMP JUMPDEST PUSH1 0x0 DUP6 DUP2 MSTORE PUSH1 0x20 DUP2 KECCAK256 PUSH1 0x1F NOT DUP7 AND SWAP2 JUMPDEST DUP3 DUP2 LT ISZERO PUSH2 0xC2B JUMPI DUP9 DUP7 ADD MLOAD DUP3 SSTORE SWAP5 DUP5 ADD SWAP5 PUSH1 0x1 SWAP1 SWAP2 ADD SWAP1 DUP5 ADD PUSH2 0xC0C JUMP JUMPDEST POP DUP6 DUP3 LT ISZERO PUSH2 0xC49 JUMPI DUP8 DUP6 ADD MLOAD PUSH1 0x0 NOT PUSH1 0x3 DUP9 SWAP1 SHL PUSH1 0xF8 AND SHR NOT AND DUP2 SSTORE JUMPDEST POP POP POP POP POP PUSH1 0x1 SWAP1 DUP2 SHL ADD SWAP1 SSTORE POP JUMP JUMPDEST PUSH1 0x20 DUP2 MSTORE PUSH1 0x0 PUSH2 0xC6C PUSH1 0x20 DUP4 ADD DUP5 PUSH2 0x9FB JUMP JUMPDEST SWAP4 SWAP3 POP POP POP JUMP JUMPDEST PUSH1 0x0 PUSH1 0x1 DUP3 ADD PUSH2 0xC93 JUMPI PUSH4 0x4E487B71 PUSH1 0xE0 SHL PUSH1 0x0 MSTORE PUSH1 0x11 PUSH1 0x4 MSTORE PUSH1 0x24 PUSH1 0x0 REVERT JUMPDEST POP PUSH1 0x1 ADD SWAP1 JUMP JUMPDEST DUP3 DUP2 MSTORE PUSH1 0x40 PUSH1 0x20 DUP3 ADD MSTORE PUSH1 0x0 PUSH2 0xB09 PUSH1 0x40 DUP4 ADD DUP5 PUSH2 0x9FB JUMP INVALID LOG2 PUSH5 0x6970667358 0x22 SLT KECCAK256 0xF9 0xEA SHR LOG2 PUSH2 0xBAE9 DUP2 0xCB NUMBER 0xFC 0x29 0xFC PUSH8 0xAFFF79A20E85B348 0xD SHR PUSH9 0x97764EBCF5B3CE6473 PUSH16 0x6C634300081400330000000000000000 "
        },
        "methodIdentifiers": {
          "approveAndPay(uint256)": "07897007",
          "claimTask(uint256)": "8dd33495",
          "postTask(string)": "c4ca280d",
          "raiseDispute(uint256)": "a5c1674e",
          "submitResult(uint256,string)": "8c0dd79a",
          "taskCounter()": "58671730",
          "tasks(uint256)": "8d977672"
        }
      }
    }
  }
}